{
  "_format": "hh-sol-artifact-1",
  "contractName": "CrankToken",
  "sourceName": "contracts/SouljaToken.sol",
  "abi": [
    {
      "inputs": [
        {
          "internalType": "string",
          "name": "name",
          "type": "string"
        },
        {
          "internalType": "string",
          "name": "symbol",
          "type": "string"
        },
        {
          "internalType": "uint256",
          "name": "initialSupply",
          "type": "uint256"
        },
        {
          "internalType": "address",
          "name": "owner",
          "type": "address"
        },
        {
          "internalType": "address",
          "name": "nftContractAddress",
          "type": "address"
        }
      ],
      "stateMutability": "nonpayable",
      "type": "constructor"
    },
    {
      "anonymous": false,
      "inputs": [
        {
          "indexed": true,
          "internalType": "address",
          "name": "owner",
          "type": "address"
        },
        {
          "indexed": true,
          "internalType": "address",
          "name": "spender",
          "type": "address"
        },
        {
          "indexed": false,
          "internalType": "uint256",
          "name": "value",
          "type": "uint256"
        }
      ],
      "name": "Approval",
      "type": "event"
    },
    {
      "anonymous": false,
      "inputs": [
        {
          "indexed": true,
          "internalType": "address",
          "name": "from",
          "type": "address"
        },
        {
          "indexed": true,
          "internalType": "address",
          "name": "to",
          "type": "address"
        },
        {
          "indexed": false,
          "internalType": "uint256",
          "name": "value",
          "type": "uint256"
        }
      ],
      "name": "Transfer",
      "type": "event"
    },
    {
      "inputs": [
        {
          "internalType": "address",
          "name": "owner",
          "type": "address"
        },
        {
          "internalType": "address",
          "name": "spender",
          "type": "address"
        }
      ],
      "name": "allowance",
      "outputs": [
        {
          "internalType": "uint256",
          "name": "",
          "type": "uint256"
        }
      ],
      "stateMutability": "view",
      "type": "function"
    },
    {
      "inputs": [
        {
          "internalType": "address",
          "name": "spender",
          "type": "address"
        },
        {
          "internalType": "uint256",
          "name": "amount",
          "type": "uint256"
        }
      ],
      "name": "approve",
      "outputs": [
        {
          "internalType": "bool",
          "name": "",
          "type": "bool"
        }
      ],
      "stateMutability": "nonpayable",
      "type": "function"
    },
    {
      "inputs": [
        {
          "internalType": "address",
          "name": "account",
          "type": "address"
        }
      ],
      "name": "balanceOf",
      "outputs": [
        {
          "internalType": "uint256",
          "name": "",
          "type": "uint256"
        }
      ],
      "stateMutability": "view",
      "type": "function"
    },
    {
      "inputs": [
        {
          "internalType": "uint256",
          "name": "amount",
          "type": "uint256"
        }
      ],
      "name": "burn",
      "outputs": [],
      "stateMutability": "nonpayable",
      "type": "function"
    },
    {
      "inputs": [
        {
          "internalType": "address",
          "name": "account",
          "type": "address"
        },
        {
          "internalType": "uint256",
          "name": "amount",
          "type": "uint256"
        }
      ],
      "name": "burnFrom",
      "outputs": [],
      "stateMutability": "nonpayable",
      "type": "function"
    },
    {
      "inputs": [],
      "name": "decimals",
      "outputs": [
        {
          "internalType": "uint8",
          "name": "",
          "type": "uint8"
        }
      ],
      "stateMutability": "view",
      "type": "function"
    },
    {
      "inputs": [
        {
          "internalType": "address",
          "name": "spender",
          "type": "address"
        },
        {
          "internalType": "uint256",
          "name": "subtractedValue",
          "type": "uint256"
        }
      ],
      "name": "decreaseAllowance",
      "outputs": [
        {
          "internalType": "bool",
          "name": "",
          "type": "bool"
        }
      ],
      "stateMutability": "nonpayable",
      "type": "function"
    },
    {
      "inputs": [
        {
          "internalType": "address",
          "name": "spender",
          "type": "address"
        },
        {
          "internalType": "uint256",
          "name": "addedValue",
          "type": "uint256"
        }
      ],
      "name": "increaseAllowance",
      "outputs": [
        {
          "internalType": "bool",
          "name": "",
          "type": "bool"
        }
      ],
      "stateMutability": "nonpayable",
      "type": "function"
    },
    {
      "inputs": [],
      "name": "mintNFT",
      "outputs": [],
      "stateMutability": "nonpayable",
      "type": "function"
    },
    {
      "inputs": [],
      "name": "name",
      "outputs": [
        {
          "internalType": "string",
          "name": "",
          "type": "string"
        }
      ],
      "stateMutability": "view",
      "type": "function"
    },
    {
      "inputs": [],
      "name": "symbol",
      "outputs": [
        {
          "internalType": "string",
          "name": "",
          "type": "string"
        }
      ],
      "stateMutability": "view",
      "type": "function"
    },
    {
      "inputs": [],
      "name": "totalSupply",
      "outputs": [
        {
          "internalType": "uint256",
          "name": "",
          "type": "uint256"
        }
      ],
      "stateMutability": "view",
      "type": "function"
    },
    {
      "inputs": [
        {
          "internalType": "address",
          "name": "recipient",
          "type": "address"
        },
        {
          "internalType": "uint256",
          "name": "amount",
          "type": "uint256"
        }
      ],
      "name": "transfer",
      "outputs": [
        {
          "internalType": "bool",
          "name": "",
          "type": "bool"
        }
      ],
      "stateMutability": "nonpayable",
      "type": "function"
    },
    {
      "inputs": [
        {
          "internalType": "address",
          "name": "sender",
          "type": "address"
        },
        {
          "internalType": "address",
          "name": "recipient",
          "type": "address"
        },
        {
          "internalType": "uint256",
          "name": "amount",
          "type": "uint256"
        }
      ],
      "name": "transferFrom",
      "outputs": [
        {
          "internalType": "bool",
          "name": "",
          "type": "bool"
        }
      ],
      "stateMutability": "nonpayable",
      "type": "function"
    }
  ],
  "bytecode": "0x60806040523480156200001157600080fd5b50604051620020cb380380620020cb83398181016040528101906200003791906200038d565b8484848483838160039080519060200190620000559291906200023d565b5080600490805190602001906200006e9291906200023d565b505050620000838183620000d360201b60201c565b5050505080600560006101000a81548173ffffffffffffffffffffffffffffffffffffffff021916908373ffffffffffffffffffffffffffffffffffffffff160217905550505050505062000713565b600073ffffffffffffffffffffffffffffffffffffffff168273ffffffffffffffffffffffffffffffffffffffff16141562000146576040517f08c379a00000000000000000000000000000000000000000000000000000000081526004016200013d9062000494565b60405180910390fd5b6200015a600083836200023860201b60201c565b80600260008282546200016e91906200054b565b92505081905550806000808473ffffffffffffffffffffffffffffffffffffffff1673ffffffffffffffffffffffffffffffffffffffff1681526020019081526020016000206000828254620001c591906200054b565b925050819055508173ffffffffffffffffffffffffffffffffffffffff16600073ffffffffffffffffffffffffffffffffffffffff167fddf252ad1be2c89b69c2b068fc378daa952ba7f163c4a11628f55a4df523b3ef836040516200022c9190620004b6565b60405180910390a35050565b505050565b8280546200024b906200061c565b90600052602060002090601f0160209004810192826200026f5760008555620002bb565b82601f106200028a57805160ff1916838001178555620002bb565b82800160010185558215620002bb579182015b82811115620002ba5782518255916020019190600101906200029d565b5b509050620002ca9190620002ce565b5090565b5b80821115620002e9576000816000905550600101620002cf565b5090565b600062000304620002fe8462000507565b620004d3565b9050828152602081018484840111156200031d57600080fd5b6200032a848285620005e6565b509392505050565b6000815190506200034381620006df565b92915050565b600082601f8301126200035b57600080fd5b81516200036d848260208601620002ed565b91505092915050565b6000815190506200038781620006f9565b92915050565b600080600080600060a08688031215620003a657600080fd5b600086015167ffffffffffffffff811115620003c157600080fd5b620003cf8882890162000349565b955050602086015167ffffffffffffffff811115620003ed57600080fd5b620003fb8882890162000349565b94505060406200040e8882890162000376565b9350506060620004218882890162000332565b9250506080620004348882890162000332565b9150509295509295909350565b600062000450601f836200053a565b91507f45524332303a206d696e7420746f20746865207a65726f2061646472657373006000830152602082019050919050565b6200048e81620005dc565b82525050565b60006020820190508181036000830152620004af8162000441565b9050919050565b6000602082019050620004cd600083018462000483565b92915050565b6000604051905081810181811067ffffffffffffffff82111715620004fd57620004fc620006b0565b5b8060405250919050565b600067ffffffffffffffff821115620005255762000524620006b0565b5b601f19601f8301169050602081019050919050565b600082825260208201905092915050565b60006200055882620005dc565b91506200056583620005dc565b9250827fffffffffffffffffffffffffffffffffffffffffffffffffffffffffffffffff038211156200059d576200059c62000652565b5b828201905092915050565b6000620005b582620005bc565b9050919050565b600073ffffffffffffffffffffffffffffffffffffffff82169050919050565b6000819050919050565b60005b8381101562000606578082015181840152602081019050620005e9565b8381111562000616576000848401525b50505050565b600060028204905060018216806200063557607f821691505b602082108114156200064c576200064b62000681565b5b50919050565b7f4e487b7100000000000000000000000000000000000000000000000000000000600052601160045260246000fd5b7f4e487b7100000000000000000000000000000000000000000000000000000000600052602260045260246000fd5b7f4e487b7100000000000000000000000000000000000000000000000000000000600052604160045260246000fd5b620006ea81620005a8565b8114620006f657600080fd5b50565b6200070481620005dc565b81146200071057600080fd5b50565b6119a880620007236000396000f3fe608060405234801561001057600080fd5b50600436106100ea5760003560e01c806342966c681161008c57806395d89b411161006657806395d89b411461024b578063a457c2d714610269578063a9059cbb14610299578063dd62ed3e146102c9576100ea565b806342966c68146101e357806370a08231146101ff57806379cc67901461022f576100ea565b806318160ddd116100c857806318160ddd1461014757806323b872dd14610165578063313ce5671461019557806339509351146101b3576100ea565b806306fdde03146100ef578063095ea7b31461010d57806314f710fe1461013d575b600080fd5b6100f76102f9565b60405161010491906115bd565b60405180910390f35b61012760048036038101906101229190611071565b61038b565b60405161013491906115a2565b60405180910390f35b6101456103a9565b005b61014f61049d565b60405161015c919061173f565b60405180910390f35b61017f600480360381019061017a9190611022565b6104a7565b60405161018c91906115a2565b60405180910390f35b61019d6105a8565b6040516101aa919061175a565b60405180910390f35b6101cd60048036038101906101c89190611071565b6105b1565b6040516101da91906115a2565b60405180910390f35b6101fd60048036038101906101f891906110ad565b61065d565b005b61021960048036038101906102149190610fbd565b610671565b604051610226919061173f565b60405180910390f35b61024960048036038101906102449190611071565b6106b9565b005b61025361073d565b60405161026091906115bd565b60405180910390f35b610283600480360381019061027e9190611071565b6107cf565b60405161029091906115a2565b60405180910390f35b6102b360048036038101906102ae9190611071565b6108c3565b6040516102c091906115a2565b60405180910390f35b6102e360048036038101906102de9190610fe6565b6108e1565b6040516102f0919061173f565b60405180910390f35b606060038054610308906118a3565b80601f0160208091040260200160405190810160405280929190818152602001828054610334906118a3565b80156103815780601f1061035657610100808354040283529160200191610381565b820191906000526020600020905b81548152906001019060200180831161036457829003601f168201915b5050505050905090565b600061039f610398610968565b8484610970565b6001905092915050565b670de0b6b3a76400006103bb33610671565b10156103fc576040517f08c379a00000000000000000000000000000000000000000000000000000000081526004016103f39061167f565b60405180910390fd5b61040e33670de0b6b3a7640000610b3b565b600560009054906101000a900473ffffffffffffffffffffffffffffffffffffffff1673ffffffffffffffffffffffffffffffffffffffff16636a627842336040518263ffffffff1660e01b81526004016104699190611587565b600060405180830381600087803b15801561048357600080fd5b505af1158015610497573d6000803e3d6000fd5b50505050565b6000600254905090565b60006104b4848484610d0f565b6000600160008673ffffffffffffffffffffffffffffffffffffffff1673ffffffffffffffffffffffffffffffffffffffff16815260200190815260200160002060006104ff610968565b73ffffffffffffffffffffffffffffffffffffffff1673ffffffffffffffffffffffffffffffffffffffff1681526020019081526020016000205490508281101561057f576040517f08c379a00000000000000000000000000000000000000000000000000000000081526004016105769061165f565b60405180910390fd5b61059c8561058b610968565b858461059791906117e7565b610970565b60019150509392505050565b60006012905090565b60006106536105be610968565b8484600160006105cc610968565b73ffffffffffffffffffffffffffffffffffffffff1673ffffffffffffffffffffffffffffffffffffffff16815260200190815260200160002060008873ffffffffffffffffffffffffffffffffffffffff1673ffffffffffffffffffffffffffffffffffffffff1681526020019081526020016000205461064e9190611791565b610970565b6001905092915050565b61066e610668610968565b82610b3b565b50565b60008060008373ffffffffffffffffffffffffffffffffffffffff1673ffffffffffffffffffffffffffffffffffffffff168152602001908152602001600020549050919050565b60006106cc836106c7610968565b6108e1565b905081811015610711576040517f08c379a00000000000000000000000000000000000000000000000000000000081526004016107089061169f565b60405180910390fd5b61072e8361071d610968565b848461072991906117e7565b610970565b6107388383610b3b565b505050565b60606004805461074c906118a3565b80601f0160208091040260200160405190810160405280929190818152602001828054610778906118a3565b80156107c55780601f1061079a576101008083540402835291602001916107c5565b820191906000526020600020905b8154815290600101906020018083116107a857829003601f168201915b5050505050905090565b600080600160006107de610968565b73ffffffffffffffffffffffffffffffffffffffff1673ffffffffffffffffffffffffffffffffffffffff16815260200190815260200160002060008573ffffffffffffffffffffffffffffffffffffffff1673ffffffffffffffffffffffffffffffffffffffff1681526020019081526020016000205490508281101561089b576040517f08c379a00000000000000000000000000000000000000000000000000000000081526004016108929061171f565b60405180910390fd5b6108b86108a6610968565b8585846108b391906117e7565b610970565b600191505092915050565b60006108d76108d0610968565b8484610d0f565b6001905092915050565b6000600160008473ffffffffffffffffffffffffffffffffffffffff1673ffffffffffffffffffffffffffffffffffffffff16815260200190815260200160002060008373ffffffffffffffffffffffffffffffffffffffff1673ffffffffffffffffffffffffffffffffffffffff16815260200190815260200160002054905092915050565b600033905090565b600073ffffffffffffffffffffffffffffffffffffffff168373ffffffffffffffffffffffffffffffffffffffff1614156109e0576040517f08c379a00000000000000000000000000000000000000000000000000000000081526004016109d7906116ff565b60405180910390fd5b600073ffffffffffffffffffffffffffffffffffffffff168273ffffffffffffffffffffffffffffffffffffffff161415610a50576040517f08c379a0000000000000000000000000000000000000000000000000000000008152600401610a479061161f565b60405180910390fd5b80600160008573ffffffffffffffffffffffffffffffffffffffff1673ffffffffffffffffffffffffffffffffffffffff16815260200190815260200160002060008473ffffffffffffffffffffffffffffffffffffffff1673ffffffffffffffffffffffffffffffffffffffff168152602001908152602001600020819055508173ffffffffffffffffffffffffffffffffffffffff168373ffffffffffffffffffffffffffffffffffffffff167f8c5be1e5ebec7d5bd14f71427d1e84f3dd0314c0f7b2291e5b200ac8c7c3b92583604051610b2e919061173f565b60405180910390a3505050565b600073ffffffffffffffffffffffffffffffffffffffff168273ffffffffffffffffffffffffffffffffffffffff161415610bab576040517f08c379a0000000000000000000000000000000000000000000000000000000008152600401610ba2906116bf565b60405180910390fd5b610bb782600083610f8e565b60008060008473ffffffffffffffffffffffffffffffffffffffff1673ffffffffffffffffffffffffffffffffffffffff16815260200190815260200160002054905081811015610c3d576040517f08c379a0000000000000000000000000000000000000000000000000000000008152600401610c34906115ff565b60405180910390fd5b8181610c4991906117e7565b6000808573ffffffffffffffffffffffffffffffffffffffff1673ffffffffffffffffffffffffffffffffffffffff168152602001908152602001600020819055508160026000828254610c9d91906117e7565b92505081905550600073ffffffffffffffffffffffffffffffffffffffff168373ffffffffffffffffffffffffffffffffffffffff167fddf252ad1be2c89b69c2b068fc378daa952ba7f163c4a11628f55a4df523b3ef84604051610d02919061173f565b60405180910390a3505050565b600073ffffffffffffffffffffffffffffffffffffffff168373ffffffffffffffffffffffffffffffffffffffff161415610d7f576040517f08c379a0000000000000000000000000000000000000000000000000000000008152600401610d76906116df565b60405180910390fd5b600073ffffffffffffffffffffffffffffffffffffffff168273ffffffffffffffffffffffffffffffffffffffff161415610def576040517f08c379a0000000000000000000000000000000000000000000000000000000008152600401610de6906115df565b60405180910390fd5b610dfa838383610f8e565b60008060008573ffffffffffffffffffffffffffffffffffffffff1673ffffffffffffffffffffffffffffffffffffffff16815260200190815260200160002054905081811015610e80576040517f08c379a0000000000000000000000000000000000000000000000000000000008152600401610e779061163f565b60405180910390fd5b8181610e8c91906117e7565b6000808673ffffffffffffffffffffffffffffffffffffffff1673ffffffffffffffffffffffffffffffffffffffff16815260200190815260200160002081905550816000808573ffffffffffffffffffffffffffffffffffffffff1673ffffffffffffffffffffffffffffffffffffffff1681526020019081526020016000206000828254610f1c9190611791565b925050819055508273ffffffffffffffffffffffffffffffffffffffff168473ffffffffffffffffffffffffffffffffffffffff167fddf252ad1be2c89b69c2b068fc378daa952ba7f163c4a11628f55a4df523b3ef84604051610f80919061173f565b60405180910390a350505050565b505050565b600081359050610fa281611944565b92915050565b600081359050610fb78161195b565b92915050565b600060208284031215610fcf57600080fd5b6000610fdd84828501610f93565b91505092915050565b60008060408385031215610ff957600080fd5b600061100785828601610f93565b925050602061101885828601610f93565b9150509250929050565b60008060006060848603121561103757600080fd5b600061104586828701610f93565b935050602061105686828701610f93565b925050604061106786828701610fa8565b9150509250925092565b6000806040838503121561108457600080fd5b600061109285828601610f93565b92505060206110a385828601610fa8565b9150509250929050565b6000602082840312156110bf57600080fd5b60006110cd84828501610fa8565b91505092915050565b6110df8161181b565b82525050565b6110ee8161182d565b82525050565b60006110ff82611775565b6111098185611780565b9350611119818560208601611870565b61112281611933565b840191505092915050565b600061113a602383611780565b91507f45524332303a207472616e7366657220746f20746865207a65726f206164647260008301527f65737300000000000000000000000000000000000000000000000000000000006020830152604082019050919050565b60006111a0602283611780565b91507f45524332303a206275726e20616d6f756e7420657863656564732062616c616e60008301527f63650000000000000000000000000000000000000000000000000000000000006020830152604082019050919050565b6000611206602283611780565b91507f45524332303a20617070726f766520746f20746865207a65726f20616464726560008301527f73730000000000000000000000000000000000000000000000000000000000006020830152604082019050919050565b600061126c602683611780565b91507f45524332303a207472616e7366657220616d6f756e742065786365656473206260008301527f616c616e636500000000000000000000000000000000000000000000000000006020830152604082019050919050565b60006112d2602883611780565b91507f45524332303a207472616e7366657220616d6f756e742065786365656473206160008301527f6c6c6f77616e63650000000000000000000000000000000000000000000000006020830152604082019050919050565b6000611338601c83611780565b91507f4372616e6b546f6b656e3a204e6f7420656e6f75676820746f6b656e000000006000830152602082019050919050565b6000611378602483611780565b91507f45524332303a206275726e20616d6f756e74206578636565647320616c6c6f7760008301527f616e6365000000000000000000000000000000000000000000000000000000006020830152604082019050919050565b60006113de602183611780565b91507f45524332303a206275726e2066726f6d20746865207a65726f2061646472657360008301527f73000000000000000000000000000000000000000000000000000000000000006020830152604082019050919050565b6000611444602583611780565b91507f45524332303a207472616e736665722066726f6d20746865207a65726f20616460008301527f64726573730000000000000000000000000000000000000000000000000000006020830152604082019050919050565b60006114aa602483611780565b91507f45524332303a20617070726f76652066726f6d20746865207a65726f2061646460008301527f72657373000000000000000000000000000000000000000000000000000000006020830152604082019050919050565b6000611510602583611780565b91507f45524332303a2064656372656173656420616c6c6f77616e63652062656c6f7760008301527f207a65726f0000000000000000000000000000000000000000000000000000006020830152604082019050919050565b61157281611859565b82525050565b61158181611863565b82525050565b600060208201905061159c60008301846110d6565b92915050565b60006020820190506115b760008301846110e5565b92915050565b600060208201905081810360008301526115d781846110f4565b905092915050565b600060208201905081810360008301526115f88161112d565b9050919050565b6000602082019050818103600083015261161881611193565b9050919050565b60006020820190508181036000830152611638816111f9565b9050919050565b600060208201905081810360008301526116588161125f565b9050919050565b60006020820190508181036000830152611678816112c5565b9050919050565b600060208201905081810360008301526116988161132b565b9050919050565b600060208201905081810360008301526116b88161136b565b9050919050565b600060208201905081810360008301526116d8816113d1565b9050919050565b600060208201905081810360008301526116f881611437565b9050919050565b600060208201905081810360008301526117188161149d565b9050919050565b6000602082019050818103600083015261173881611503565b9050919050565b60006020820190506117546000830184611569565b92915050565b600060208201905061176f6000830184611578565b92915050565b600081519050919050565b600082825260208201905092915050565b600061179c82611859565b91506117a783611859565b9250827fffffffffffffffffffffffffffffffffffffffffffffffffffffffffffffffff038211156117dc576117db6118d5565b5b828201905092915050565b60006117f282611859565b91506117fd83611859565b9250828210156118105761180f6118d5565b5b828203905092915050565b600061182682611839565b9050919050565b60008115159050919050565b600073ffffffffffffffffffffffffffffffffffffffff82169050919050565b6000819050919050565b600060ff82169050919050565b60005b8381101561188e578082015181840152602081019050611873565b8381111561189d576000848401525b50505050565b600060028204905060018216806118bb57607f821691505b602082108114156118cf576118ce611904565b5b50919050565b7f4e487b7100000000000000000000000000000000000000000000000000000000600052601160045260246000fd5b7f4e487b7100000000000000000000000000000000000000000000000000000000600052602260045260246000fd5b6000601f19601f8301169050919050565b61194d8161181b565b811461195857600080fd5b50565b61196481611859565b811461196f57600080fd5b5056fea26469706673582212207ab39a3faa678e8aaef261bce1ee6f80fe841636171601a1ca4a7017a178357e64736f6c63430008000033",
  "linkReferences": {},
  "deployedLinkReferences": {}
}