{
  "_format": "hh-sol-artifact-1",
  "contractName": "SignatureRegistrar",
  "sourceName": "contracts/SouljaSignatureRegistrar.sol",
  "abi": [
    {
      "inputs": [],
      "stateMutability": "nonpayable",
      "type": "constructor"
    },
    {
      "anonymous": false,
      "inputs": [
        {
          "indexed": true,
          "internalType": "address",
          "name": "previousOwner",
          "type": "address"
        },
        {
          "indexed": true,
          "internalType": "address",
          "name": "newOwner",
          "type": "address"
        }
      ],
      "name": "OwnershipTransferred",
      "type": "event"
    },
    {
      "anonymous": false,
      "inputs": [
        {
          "indexed": false,
          "internalType": "address",
          "name": "nftContract",
          "type": "address"
        },
        {
          "indexed": false,
          "internalType": "uint256",
          "name": "nftID",
          "type": "uint256"
        },
        {
          "indexed": false,
          "internalType": "address",
          "name": "signer",
          "type": "address"
        },
        {
          "indexed": false,
          "internalType": "address",
          "name": "requester",
          "type": "address"
        }
      ],
      "name": "SignRequestCancelled",
      "type": "event"
    },
    {
      "anonymous": false,
      "inputs": [
        {
          "indexed": false,
          "internalType": "address",
          "name": "nftContract",
          "type": "address"
        },
        {
          "indexed": false,
          "internalType": "uint256",
          "name": "nftID",
          "type": "uint256"
        },
        {
          "indexed": false,
          "internalType": "address",
          "name": "signer",
          "type": "address"
        },
        {
          "indexed": false,
          "internalType": "address",
          "name": "requester",
          "type": "address"
        }
      ],
      "name": "SignRequestCreated",
      "type": "event"
    },
    {
      "anonymous": false,
      "inputs": [
        {
          "indexed": false,
          "internalType": "address",
          "name": "nftContract",
          "type": "address"
        },
        {
          "indexed": false,
          "internalType": "uint256",
          "name": "nftID",
          "type": "uint256"
        },
        {
          "indexed": false,
          "internalType": "uint256",
          "name": "signatureID",
          "type": "uint256"
        },
        {
          "indexed": false,
          "internalType": "address",
          "name": "signer",
          "type": "address"
        },
        {
          "indexed": false,
          "internalType": "address",
          "name": "requester",
          "type": "address"
        }
      ],
      "name": "Signed",
      "type": "event"
    },
    {
      "inputs": [
        {
          "internalType": "address",
          "name": "",
          "type": "address"
        },
        {
          "internalType": "uint256",
          "name": "",
          "type": "uint256"
        },
        {
          "internalType": "address",
          "name": "",
          "type": "address"
        }
      ],
      "name": "canSign",
      "outputs": [
        {
          "internalType": "bool",
          "name": "",
          "type": "bool"
        }
      ],
      "stateMutability": "view",
      "type": "function"
    },
    {
      "inputs": [
        {
          "internalType": "address",
          "name": "nftContract",
          "type": "address"
        },
        {
          "internalType": "uint256",
          "name": "nftID",
          "type": "uint256"
        },
        {
          "internalType": "address",
          "name": "signer",
          "type": "address"
        }
      ],
      "name": "cancelSignatureRequest",
      "outputs": [],
      "stateMutability": "nonpayable",
      "type": "function"
    },
    {
      "inputs": [
        {
          "internalType": "address",
          "name": "nftContract",
          "type": "address"
        },
        {
          "internalType": "uint256",
          "name": "nftID",
          "type": "uint256"
        },
        {
          "internalType": "address",
          "name": "signer",
          "type": "address"
        }
      ],
      "name": "createSignatureRequest",
      "outputs": [],
      "stateMutability": "nonpayable",
      "type": "function"
    },
    {
      "inputs": [
        {
          "internalType": "address",
          "name": "",
          "type": "address"
        },
        {
          "internalType": "uint256",
          "name": "",
          "type": "uint256"
        }
      ],
      "name": "nftToSignatureID",
      "outputs": [
        {
          "internalType": "uint256",
          "name": "",
          "type": "uint256"
        }
      ],
      "stateMutability": "view",
      "type": "function"
    },
    {
      "inputs": [],
      "name": "owner",
      "outputs": [
        {
          "internalType": "address",
          "name": "",
          "type": "address"
        }
      ],
      "stateMutability": "view",
      "type": "function"
    },
    {
      "inputs": [],
      "name": "renounceOwnership",
      "outputs": [],
      "stateMutability": "nonpayable",
      "type": "function"
    },
    {
      "inputs": [
        {
          "internalType": "address",
          "name": "nftContract",
          "type": "address"
        },
        {
          "internalType": "uint256",
          "name": "nftID",
          "type": "uint256"
        },
        {
          "internalType": "string",
          "name": "signatureFile",
          "type": "string"
        }
      ],
      "name": "sign",
      "outputs": [],
      "stateMutability": "nonpayable",
      "type": "function"
    },
    {
      "inputs": [
        {
          "internalType": "uint256",
          "name": "",
          "type": "uint256"
        }
      ],
      "name": "signatures",
      "outputs": [
        {
          "internalType": "address",
          "name": "signer",
          "type": "address"
        },
        {
          "internalType": "string",
          "name": "signatureFile",
          "type": "string"
        }
      ],
      "stateMutability": "view",
      "type": "function"
    },
    {
      "inputs": [
        {
          "internalType": "address",
          "name": "newOwner",
          "type": "address"
        }
      ],
      "name": "transferOwnership",
      "outputs": [],
      "stateMutability": "nonpayable",
      "type": "function"
    }
  ],
  "bytecode": "0x60806040523480156200001157600080fd5b506000620000246200019660201b60201c565b9050806000806101000a81548173ffffffffffffffffffffffffffffffffffffffff021916908373ffffffffffffffffffffffffffffffffffffffff1602179055508073ffffffffffffffffffffffffffffffffffffffff16600073ffffffffffffffffffffffffffffffffffffffff167f8be0079c531659141344cd1fd0a4f28419497f9722a3daafe3b4186f6b6457e060405160405180910390a35060016040518060400160405280600073ffffffffffffffffffffffffffffffffffffffff16815260200160405180602001604052806000815250815250908060018154018082558091505060019003906000526020600020906002020160009091909190915060008201518160000160006101000a81548173ffffffffffffffffffffffffffffffffffffffff021916908373ffffffffffffffffffffffffffffffffffffffff16021790555060208201518160010190805190602001906200018d9291906200019e565b505050620002b3565b600033905090565b828054620001ac906200024e565b90600052602060002090601f016020900481019282620001d057600085556200021c565b82601f10620001eb57805160ff19168380011785556200021c565b828001600101855582156200021c579182015b828111156200021b578251825591602001919060010190620001fe565b5b5090506200022b91906200022f565b5090565b5b808211156200024a57600081600090555060010162000230565b5090565b600060028204905060018216806200026757607f821691505b602082108114156200027e576200027d62000284565b5b50919050565b7f4e487b7100000000000000000000000000000000000000000000000000000000600052602260045260246000fd5b6119e480620002c36000396000f3fe608060405234801561001057600080fd5b50600436106100935760003560e01c80638da5cb5b116100665780638da5cb5b1461011f578063ab31b0591461013d578063db18d5ca14610159578063dfe2ad9b14610189578063f2fde38b146101a557610093565b8063262ae12414610098578063715018a6146100b457806377493327146100be5780638be10194146100ee575b600080fd5b6100b260048036038101906100ad919061122d565b6101c1565b005b6100bc61047f565b005b6100d860048036038101906100d3919061122d565b6105b9565b6040516100e591906116fe565b60405180910390f35b610108600480360381019061010391906112e8565b6105f5565b604051610116929190611636565b60405180910390f35b6101276106d1565b604051610134919061161b565b60405180910390f35b6101576004803603810190610152919061127c565b6106fa565b005b610173600480360381019061016e91906111f1565b610b4b565b60405161018091906117f9565b60405180910390f35b6101a3600480360381019061019e919061122d565b610b70565b005b6101bf60048036038101906101ba919061119f565b610ec2565b005b60008390503373ffffffffffffffffffffffffffffffffffffffff168173ffffffffffffffffffffffffffffffffffffffff16636352211e856040518263ffffffff1660e01b815260040161021691906117f9565b60206040518083038186803b15801561022e57600080fd5b505afa158015610242573d6000803e3d6000fd5b505050506040513d601f19601f8201168201806040525081019061026691906111c8565b73ffffffffffffffffffffffffffffffffffffffff16146102bc576040517f08c379a00000000000000000000000000000000000000000000000000000000081526004016102b390611739565b60405180910390fd5b600260008573ffffffffffffffffffffffffffffffffffffffff1673ffffffffffffffffffffffffffffffffffffffff168152602001908152602001600020600084815260200190815260200160002060008373ffffffffffffffffffffffffffffffffffffffff1673ffffffffffffffffffffffffffffffffffffffff16815260200190815260200160002060009054906101000a900460ff16610396576040517f08c379a000000000000000000000000000000000000000000000000000000000815260040161038d90611799565b60405180910390fd5b6000600260008673ffffffffffffffffffffffffffffffffffffffff1673ffffffffffffffffffffffffffffffffffffffff168152602001908152602001600020600085815260200190815260200160002060008473ffffffffffffffffffffffffffffffffffffffff1673ffffffffffffffffffffffffffffffffffffffff16815260200190815260200160002060006101000a81548160ff0219169083151502179055507f4cdedf77c279d6d56e0f138a2b9ae268a3affee77a94fcf457cd2f6c063d4d37848484336040516104719493929190611666565b60405180910390a150505050565b61048761106b565b73ffffffffffffffffffffffffffffffffffffffff166104a56106d1565b73ffffffffffffffffffffffffffffffffffffffff16146104fb576040517f08c379a00000000000000000000000000000000000000000000000000000000081526004016104f290611779565b60405180910390fd5b600073ffffffffffffffffffffffffffffffffffffffff1660008054906101000a900473ffffffffffffffffffffffffffffffffffffffff1673ffffffffffffffffffffffffffffffffffffffff167f8be0079c531659141344cd1fd0a4f28419497f9722a3daafe3b4186f6b6457e060405160405180910390a360008060006101000a81548173ffffffffffffffffffffffffffffffffffffffff021916908373ffffffffffffffffffffffffffffffffffffffff160217905550565b6002602052826000526040600020602052816000526040600020602052806000526040600020600092509250509054906101000a900460ff1681565b6001818154811061060557600080fd5b90600052602060002090600202016000915090508060000160009054906101000a900473ffffffffffffffffffffffffffffffffffffffff169080600101805461064e906118df565b80601f016020809104026020016040519081016040528092919081815260200182805461067a906118df565b80156106c75780601f1061069c576101008083540402835291602001916106c7565b820191906000526020600020905b8154815290600101906020018083116106aa57829003601f168201915b5050505050905082565b60008060009054906101000a900473ffffffffffffffffffffffffffffffffffffffff16905090565b6000600360008673ffffffffffffffffffffffffffffffffffffffff1673ffffffffffffffffffffffffffffffffffffffff1681526020019081526020016000206000858152602001908152602001600020541461078d576040517f08c379a0000000000000000000000000000000000000000000000000000000008152600401610784906117b9565b60405180910390fd5b600260008573ffffffffffffffffffffffffffffffffffffffff1673ffffffffffffffffffffffffffffffffffffffff168152602001908152602001600020600084815260200190815260200160002060003373ffffffffffffffffffffffffffffffffffffffff1673ffffffffffffffffffffffffffffffffffffffff16815260200190815260200160002060009054906101000a900460ff16610867576040517f08c379a000000000000000000000000000000000000000000000000000000000815260040161085e90611759565b60405180910390fd5b600160405180604001604052803373ffffffffffffffffffffffffffffffffffffffff16815260200184848080601f016020809104026020016040519081016040528093929190818152602001838380828437600081840152601f19601f82011690508083019250505050505050815250908060018154018082558091505060019003906000526020600020906002020160009091909190915060008201518160000160006101000a81548173ffffffffffffffffffffffffffffffffffffffff021916908373ffffffffffffffffffffffffffffffffffffffff1602179055506020820151816001019080519060200190610964929190611073565b50505060006001808054905061097a9190611830565b905080600360008773ffffffffffffffffffffffffffffffffffffffff1673ffffffffffffffffffffffffffffffffffffffff1681526020019081526020016000206000868152602001908152602001600020819055506000600260008773ffffffffffffffffffffffffffffffffffffffff1673ffffffffffffffffffffffffffffffffffffffff168152602001908152602001600020600086815260200190815260200160002060003373ffffffffffffffffffffffffffffffffffffffff1673ffffffffffffffffffffffffffffffffffffffff16815260200190815260200160002060006101000a81548160ff02191690831515021790555060008590507ff91ebd2a21be496954733d1c3c11d5c90ca398ced23560c7a1507468376a3aa8868684338573ffffffffffffffffffffffffffffffffffffffff16636352211e8b6040518263ffffffff1660e01b8152600401610ada91906117f9565b60206040518083038186803b158015610af257600080fd5b505afa158015610b06573d6000803e3d6000fd5b505050506040513d601f19601f82011682018060405250810190610b2a91906111c8565b604051610b3b9594939291906116ab565b60405180910390a1505050505050565b6003602052816000526040600020602052806000526040600020600091509150505481565b60008390506000600360008673ffffffffffffffffffffffffffffffffffffffff1673ffffffffffffffffffffffffffffffffffffffff16815260200190815260200160002060008581526020019081526020016000205414610c08576040517f08c379a0000000000000000000000000000000000000000000000000000000008152600401610bff906117b9565b60405180910390fd5b3373ffffffffffffffffffffffffffffffffffffffff168173ffffffffffffffffffffffffffffffffffffffff16636352211e856040518263ffffffff1660e01b8152600401610c5891906117f9565b60206040518083038186803b158015610c7057600080fd5b505afa158015610c84573d6000803e3d6000fd5b505050506040513d601f19601f82011682018060405250810190610ca891906111c8565b73ffffffffffffffffffffffffffffffffffffffff1614610cfe576040517f08c379a0000000000000000000000000000000000000000000000000000000008152600401610cf590611739565b60405180910390fd5b600260008573ffffffffffffffffffffffffffffffffffffffff1673ffffffffffffffffffffffffffffffffffffffff168152602001908152602001600020600084815260200190815260200160002060008373ffffffffffffffffffffffffffffffffffffffff1673ffffffffffffffffffffffffffffffffffffffff16815260200190815260200160002060009054906101000a900460ff1615610dd9576040517f08c379a0000000000000000000000000000000000000000000000000000000008152600401610dd0906117d9565b60405180910390fd5b6001600260008673ffffffffffffffffffffffffffffffffffffffff1673ffffffffffffffffffffffffffffffffffffffff168152602001908152602001600020600085815260200190815260200160002060008473ffffffffffffffffffffffffffffffffffffffff1673ffffffffffffffffffffffffffffffffffffffff16815260200190815260200160002060006101000a81548160ff0219169083151502179055507f556533f67a5a406be79e8853d2722c004d72ceae11768004b2169242e7726fa084848433604051610eb49493929190611666565b60405180910390a150505050565b610eca61106b565b73ffffffffffffffffffffffffffffffffffffffff16610ee86106d1565b73ffffffffffffffffffffffffffffffffffffffff1614610f3e576040517f08c379a0000000000000000000000000000000000000000000000000000000008152600401610f3590611779565b60405180910390fd5b600073ffffffffffffffffffffffffffffffffffffffff168173ffffffffffffffffffffffffffffffffffffffff161415610fae576040517f08c379a0000000000000000000000000000000000000000000000000000000008152600401610fa590611719565b60405180910390fd5b8073ffffffffffffffffffffffffffffffffffffffff1660008054906101000a900473ffffffffffffffffffffffffffffffffffffffff1673ffffffffffffffffffffffffffffffffffffffff167f8be0079c531659141344cd1fd0a4f28419497f9722a3daafe3b4186f6b6457e060405160405180910390a3806000806101000a81548173ffffffffffffffffffffffffffffffffffffffff021916908373ffffffffffffffffffffffffffffffffffffffff16021790555050565b600033905090565b82805461107f906118df565b90600052602060002090601f0160209004810192826110a157600085556110e8565b82601f106110ba57805160ff19168380011785556110e8565b828001600101855582156110e8579182015b828111156110e75782518255916020019190600101906110cc565b5b5090506110f591906110f9565b5090565b5b808211156111125760008160009055506001016110fa565b5090565b60008135905061112581611980565b92915050565b60008151905061113a81611980565b92915050565b60008083601f84011261115257600080fd5b8235905067ffffffffffffffff81111561116b57600080fd5b60208301915083600182028301111561118357600080fd5b9250929050565b60008135905061119981611997565b92915050565b6000602082840312156111b157600080fd5b60006111bf84828501611116565b91505092915050565b6000602082840312156111da57600080fd5b60006111e88482850161112b565b91505092915050565b6000806040838503121561120457600080fd5b600061121285828601611116565b92505060206112238582860161118a565b9150509250929050565b60008060006060848603121561124257600080fd5b600061125086828701611116565b93505060206112618682870161118a565b925050604061127286828701611116565b9150509250925092565b6000806000806060858703121561129257600080fd5b60006112a087828801611116565b94505060206112b18782880161118a565b935050604085013567ffffffffffffffff8111156112ce57600080fd5b6112da87828801611140565b925092505092959194509250565b6000602082840312156112fa57600080fd5b60006113088482850161118a565b91505092915050565b61131a81611864565b82525050565b61132981611876565b82525050565b600061133a82611814565b611344818561181f565b93506113548185602086016118ac565b61135d8161196f565b840191505092915050565b600061137560268361181f565b91507f4f776e61626c653a206e6577206f776e657220697320746865207a65726f206160008301527f64647265737300000000000000000000000000000000000000000000000000006020830152604082019050919050565b60006113db603b8361181f565b91507f5369676e61747572655265676973747261723a206d73672e73656e646572206960008301527f73206e6f7420746865206f776e6572206f662074686973204e465400000000006020830152604082019050919050565b600061144160308361181f565b91507f5369676e61747572655265676973747261723a204e6f7420616c6c6f7765642060008301527f746f207369676e2074686973204e4654000000000000000000000000000000006020830152604082019050919050565b60006114a760208361181f565b91507f4f776e61626c653a2063616c6c6572206973206e6f7420746865206f776e65726000830152602082019050919050565b60006114e7602d8361181f565b91507f5369676e61747572655265676973747261723a207369676e65722063616e277460008301527f207369676e20616c7265616479000000000000000000000000000000000000006020830152604082019050919050565b600061154d60268361181f565b91507f5369676e61747572655265676973747261723a204e465420616c72656164792060008301527f7369676e656400000000000000000000000000000000000000000000000000006020830152604082019050919050565b60006115b3602b8361181f565b91507f5369676e61747572655265676973747261723a207369676e65722063616e207360008301527f69676e20616c72656164790000000000000000000000000000000000000000006020830152604082019050919050565b611615816118a2565b82525050565b60006020820190506116306000830184611311565b92915050565b600060408201905061164b6000830185611311565b818103602083015261165d818461132f565b90509392505050565b600060808201905061167b6000830187611311565b611688602083018661160c565b6116956040830185611311565b6116a26060830184611311565b95945050505050565b600060a0820190506116c06000830188611311565b6116cd602083018761160c565b6116da604083018661160c565b6116e76060830185611311565b6116f46080830184611311565b9695505050505050565b60006020820190506117136000830184611320565b92915050565b6000602082019050818103600083015261173281611368565b9050919050565b60006020820190508181036000830152611752816113ce565b9050919050565b6000602082019050818103600083015261177281611434565b9050919050565b600060208201905081810360008301526117928161149a565b9050919050565b600060208201905081810360008301526117b2816114da565b9050919050565b600060208201905081810360008301526117d281611540565b9050919050565b600060208201905081810360008301526117f2816115a6565b9050919050565b600060208201905061180e600083018461160c565b92915050565b600081519050919050565b600082825260208201905092915050565b600061183b826118a2565b9150611846836118a2565b92508282101561185957611858611911565b5b828203905092915050565b600061186f82611882565b9050919050565b60008115159050919050565b600073ffffffffffffffffffffffffffffffffffffffff82169050919050565b6000819050919050565b60005b838110156118ca5780820151818401526020810190506118af565b838111156118d9576000848401525b50505050565b600060028204905060018216806118f757607f821691505b6020821081141561190b5761190a611940565b5b50919050565b7f4e487b7100000000000000000000000000000000000000000000000000000000600052601160045260246000fd5b7f4e487b7100000000000000000000000000000000000000000000000000000000600052602260045260246000fd5b6000601f19601f8301169050919050565b61198981611864565b811461199457600080fd5b50565b6119a0816118a2565b81146119ab57600080fd5b5056fea26469706673582212200af245678c63854a31fab8e6d11562ab58962201b7847ac1d69918d5e5e9321864736f6c63430008000033",
  "linkReferences": {},
  "deployedLinkReferences": {}
}